{
  "contractName": "CryptoSuits",
  "abi": [
    {
      "inputs": [],
      "stateMutability": "nonpayable",
      "type": "constructor"
    },
    {
      "anonymous": false,
      "inputs": [
        {
          "indexed": true,
          "internalType": "address",
          "name": "owner",
          "type": "address"
        },
        {
          "indexed": true,
          "internalType": "address",
          "name": "approved",
          "type": "address"
        },
        {
          "indexed": true,
          "internalType": "uint256",
          "name": "tokenId",
          "type": "uint256"
        }
      ],
      "name": "Approval",
      "type": "event"
    },
    {
      "anonymous": false,
      "inputs": [
        {
          "indexed": true,
          "internalType": "address",
          "name": "owner",
          "type": "address"
        },
        {
          "indexed": true,
          "internalType": "address",
          "name": "operator",
          "type": "address"
        },
        {
          "indexed": false,
          "internalType": "bool",
          "name": "approved",
          "type": "bool"
        }
      ],
      "name": "ApprovalForAll",
      "type": "event"
    },
    {
      "anonymous": false,
      "inputs": [
        {
          "indexed": true,
          "internalType": "address",
          "name": "previousOwner",
          "type": "address"
        },
        {
          "indexed": true,
          "internalType": "address",
          "name": "newOwner",
          "type": "address"
        }
      ],
      "name": "OwnershipTransferred",
      "type": "event"
    },
    {
      "anonymous": false,
      "inputs": [
        {
          "indexed": true,
          "internalType": "address",
          "name": "from",
          "type": "address"
        },
        {
          "indexed": true,
          "internalType": "address",
          "name": "to",
          "type": "address"
        },
        {
          "indexed": true,
          "internalType": "uint256",
          "name": "tokenId",
          "type": "uint256"
        }
      ],
      "name": "Transfer",
      "type": "event"
    },
    {
      "inputs": [
        {
          "internalType": "address",
          "name": "to",
          "type": "address"
        },
        {
          "internalType": "uint256",
          "name": "tokenId",
          "type": "uint256"
        }
      ],
      "name": "approve",
      "outputs": [],
      "stateMutability": "nonpayable",
      "type": "function"
    },
    {
      "inputs": [
        {
          "internalType": "address",
          "name": "owner",
          "type": "address"
        }
      ],
      "name": "balanceOf",
      "outputs": [
        {
          "internalType": "uint256",
          "name": "",
          "type": "uint256"
        }
      ],
      "stateMutability": "view",
      "type": "function",
      "constant": true
    },
    {
      "inputs": [],
      "name": "baseUri",
      "outputs": [
        {
          "internalType": "string",
          "name": "",
          "type": "string"
        }
      ],
      "stateMutability": "view",
      "type": "function",
      "constant": true
    },
    {
      "inputs": [
        {
          "internalType": "uint256",
          "name": "tokenId",
          "type": "uint256"
        }
      ],
      "name": "getApproved",
      "outputs": [
        {
          "internalType": "address",
          "name": "",
          "type": "address"
        }
      ],
      "stateMutability": "view",
      "type": "function",
      "constant": true
    },
    {
      "inputs": [
        {
          "internalType": "address",
          "name": "owner",
          "type": "address"
        },
        {
          "internalType": "address",
          "name": "operator",
          "type": "address"
        }
      ],
      "name": "isApprovedForAll",
      "outputs": [
        {
          "internalType": "bool",
          "name": "",
          "type": "bool"
        }
      ],
      "stateMutability": "view",
      "type": "function",
      "constant": true
    },
    {
      "inputs": [],
      "name": "maxPurchase",
      "outputs": [
        {
          "internalType": "uint256",
          "name": "",
          "type": "uint256"
        }
      ],
      "stateMutability": "view",
      "type": "function",
      "constant": true
    },
    {
      "inputs": [],
      "name": "maxSupply",
      "outputs": [
        {
          "internalType": "uint256",
          "name": "",
          "type": "uint256"
        }
      ],
      "stateMutability": "view",
      "type": "function",
      "constant": true
    },
    {
      "inputs": [],
      "name": "name",
      "outputs": [
        {
          "internalType": "string",
          "name": "",
          "type": "string"
        }
      ],
      "stateMutability": "view",
      "type": "function",
      "constant": true
    },
    {
      "inputs": [],
      "name": "owner",
      "outputs": [
        {
          "internalType": "address",
          "name": "",
          "type": "address"
        }
      ],
      "stateMutability": "view",
      "type": "function",
      "constant": true
    },
    {
      "inputs": [
        {
          "internalType": "uint256",
          "name": "tokenId",
          "type": "uint256"
        }
      ],
      "name": "ownerOf",
      "outputs": [
        {
          "internalType": "address",
          "name": "",
          "type": "address"
        }
      ],
      "stateMutability": "view",
      "type": "function",
      "constant": true
    },
    {
      "inputs": [],
      "name": "price",
      "outputs": [
        {
          "internalType": "uint256",
          "name": "",
          "type": "uint256"
        }
      ],
      "stateMutability": "view",
      "type": "function",
      "constant": true
    },
    {
      "inputs": [],
      "name": "renounceOwnership",
      "outputs": [],
      "stateMutability": "nonpayable",
      "type": "function"
    },
    {
      "inputs": [
        {
          "internalType": "address",
          "name": "from",
          "type": "address"
        },
        {
          "internalType": "address",
          "name": "to",
          "type": "address"
        },
        {
          "internalType": "uint256",
          "name": "tokenId",
          "type": "uint256"
        }
      ],
      "name": "safeTransferFrom",
      "outputs": [],
      "stateMutability": "nonpayable",
      "type": "function"
    },
    {
      "inputs": [
        {
          "internalType": "address",
          "name": "from",
          "type": "address"
        },
        {
          "internalType": "address",
          "name": "to",
          "type": "address"
        },
        {
          "internalType": "uint256",
          "name": "tokenId",
          "type": "uint256"
        },
        {
          "internalType": "bytes",
          "name": "_data",
          "type": "bytes"
        }
      ],
      "name": "safeTransferFrom",
      "outputs": [],
      "stateMutability": "nonpayable",
      "type": "function"
    },
    {
      "inputs": [
        {
          "internalType": "address",
          "name": "operator",
          "type": "address"
        },
        {
          "internalType": "bool",
          "name": "approved",
          "type": "bool"
        }
      ],
      "name": "setApprovalForAll",
      "outputs": [],
      "stateMutability": "nonpayable",
      "type": "function"
    },
    {
      "inputs": [],
      "name": "startSale",
      "outputs": [
        {
          "internalType": "bool",
          "name": "",
          "type": "bool"
        }
      ],
      "stateMutability": "view",
      "type": "function",
      "constant": true
    },
    {
      "inputs": [
        {
          "internalType": "bytes4",
          "name": "interfaceId",
          "type": "bytes4"
        }
      ],
      "name": "supportsInterface",
      "outputs": [
        {
          "internalType": "bool",
          "name": "",
          "type": "bool"
        }
      ],
      "stateMutability": "view",
      "type": "function",
      "constant": true
    },
    {
      "inputs": [],
      "name": "symbol",
      "outputs": [
        {
          "internalType": "string",
          "name": "",
          "type": "string"
        }
      ],
      "stateMutability": "view",
      "type": "function",
      "constant": true
    },
    {
      "inputs": [
        {
          "internalType": "address",
          "name": "from",
          "type": "address"
        },
        {
          "internalType": "address",
          "name": "to",
          "type": "address"
        },
        {
          "internalType": "uint256",
          "name": "tokenId",
          "type": "uint256"
        }
      ],
      "name": "transferFrom",
      "outputs": [],
      "stateMutability": "nonpayable",
      "type": "function"
    },
    {
      "inputs": [
        {
          "internalType": "address",
          "name": "newOwner",
          "type": "address"
        }
      ],
      "name": "transferOwnership",
      "outputs": [],
      "stateMutability": "nonpayable",
      "type": "function"
    },
    {
      "stateMutability": "payable",
      "type": "receive",
      "payable": true
    },
    {
      "inputs": [],
      "name": "totalSupply",
      "outputs": [
        {
          "internalType": "uint256",
          "name": "",
          "type": "uint256"
        }
      ],
      "stateMutability": "view",
      "type": "function",
      "constant": true
    },
    {
      "inputs": [
        {
          "internalType": "uint256",
          "name": "tokenId",
          "type": "uint256"
        }
      ],
      "name": "exists",
      "outputs": [
        {
          "internalType": "bool",
          "name": "",
          "type": "bool"
        }
      ],
      "stateMutability": "view",
      "type": "function",
      "constant": true
    },
    {
      "inputs": [
        {
          "internalType": "uint256",
          "name": "numberOfTokens",
          "type": "uint256"
        }
      ],
      "name": "mint",
      "outputs": [],
      "stateMutability": "payable",
      "type": "function",
      "payable": true
    },
    {
      "inputs": [
        {
          "internalType": "uint256",
          "name": "numberOfTokens",
          "type": "uint256"
        },
        {
          "internalType": "address",
          "name": "receiver",
          "type": "address"
        }
      ],
      "name": "mintTeam",
      "outputs": [],
      "stateMutability": "nonpayable",
      "type": "function"
    },
    {
      "inputs": [
        {
          "internalType": "address",
          "name": "owner",
          "type": "address"
        }
      ],
      "name": "getByOwner",
      "outputs": [
        {
          "internalType": "uint256[]",
          "name": "result",
          "type": "uint256[]"
        }
      ],
      "stateMutability": "view",
      "type": "function",
      "constant": true
    },
    {
      "inputs": [
        {
          "internalType": "string",
          "name": "_baseUri",
          "type": "string"
        }
      ],
      "name": "setBaseUri",
      "outputs": [],
      "stateMutability": "nonpayable",
      "type": "function"
    },
    {
      "inputs": [
        {
          "internalType": "bool",
          "name": "_startSale",
          "type": "bool"
        }
      ],
      "name": "setSaleStart",
      "outputs": [],
      "stateMutability": "nonpayable",
      "type": "function"
    },
    {
      "inputs": [
        {
          "internalType": "uint256",
          "name": "_price",
          "type": "uint256"
        }
      ],
      "name": "setPrice",
      "outputs": [],
      "stateMutability": "nonpayable",
      "type": "function"
    },
    {
      "inputs": [
        {
          "internalType": "address",
          "name": "_metadata",
          "type": "address"
        }
      ],
      "name": "setMetadata",
      "outputs": [],
      "stateMutability": "nonpayable",
      "type": "function"
    },
    {
      "inputs": [
        {
          "internalType": "bool",
          "name": "_onchain",
          "type": "bool"
        }
      ],
      "name": "setOnchain",
      "outputs": [],
      "stateMutability": "nonpayable",
      "type": "function"
    },
    {
      "inputs": [],
      "name": "withdraw",
      "outputs": [],
      "stateMutability": "payable",
      "type": "function",
      "payable": true
    },
    {
      "inputs": [
        {
          "internalType": "contract IERC20",
          "name": "_token",
          "type": "address"
        },
        {
          "internalType": "uint256",
          "name": "_amount",
          "type": "uint256"
        }
      ],
      "name": "forwardERC20s",
      "outputs": [],
      "stateMutability": "nonpayable",
      "type": "function"
    },
    {
      "inputs": [
        {
          "internalType": "uint256",
          "name": "tokenId",
          "type": "uint256"
        }
      ],
      "name": "tokenURI",
      "outputs": [
        {
          "internalType": "string",
          "name": "output",
          "type": "string"
        }
      ],
      "stateMutability": "view",
      "type": "function",
      "constant": true
    },
    {
      "inputs": [
        {
          "internalType": "uint256",
          "name": "value",
          "type": "uint256"
        }
      ],
      "name": "toString",
      "outputs": [
        {
          "internalType": "string",
          "name": "",
          "type": "string"
        }
      ],
      "stateMutability": "pure",
      "type": "function",
      "constant": true
    }
  ],
  "bytecode": "0x6080604052666a94d74f430000600b55600c80546001600160a01b031990811672796e910bd0228ddf4cd79e3f353871a61c351c17909155600d80548216733ff9f20b191c78cae66103926e4536049ac4b944179055600e805490911673ba48044540ab8cdaee47a338844100a0ae756a8d1790553480156200008157600080fd5b50604080518082018252600b81526a43727970746f537569747360a81b60208083019182528351808501909452600a84526910d496541513d4d5525560b21b908401528151919291620000d79160009162000653565b508051620000ed90600190602084019062000653565b5050506200010a620001046200016360201b60201c565b62000167565b6001600755600c546200012990600a906001600160a01b0316620001b9565b600d546200014390600a906001600160a01b0316620001b9565b600e546200015d90600a906001600160a01b0316620001b9565b62000828565b3390565b600680546001600160a01b038381166001600160a01b0319831681179093556040519116919082907f8be0079c531659141344cd1fd0a4f28419497f9722a3daafe3b4186f6b6457e090600090a35050565b6006546001600160a01b03163314620002195760405162461bcd60e51b815260206004820181905260248201527f4f776e61626c653a2063616c6c6572206973206e6f7420746865206f776e657260448201526064015b60405180910390fd5b6127106200024c83620002386008620002e160201b620013241760201c565b620002e560201b620013281790919060201c565b11156200025857600080fd5b60646200027683620002386008620002e160201b620013241760201c565b11156200028257600080fd5b60005b82811015620002dc57620002a56008620002fa60201b6200133b1760201c565b620002c782620002c16008620002e160201b620013241760201c565b62000303565b80620002d381620007f4565b91505062000285565b505050565b5490565b6000620002f382846200079c565b9392505050565b80546001019055565b620003258282604051806020016040528060008152506200032960201b60201c565b5050565b6200033583836200039c565b620003446000848484620004e4565b620002dc5760405162461bcd60e51b8152602060048201526032602482015260008051602062002a7883398151915260448201527131b2b4bb32b91034b6b83632b6b2b73a32b960711b606482015260840162000210565b6001600160a01b038216620003f45760405162461bcd60e51b815260206004820181905260248201527f4552433732313a206d696e7420746f20746865207a65726f2061646472657373604482015260640162000210565b6000818152600260205260409020546001600160a01b0316156200045b5760405162461bcd60e51b815260206004820152601c60248201527f4552433732313a20746f6b656e20616c7265616479206d696e74656400000000604482015260640162000210565b6001600160a01b0382166000908152600360205260408120805460019290620004869084906200079c565b909155505060008181526002602052604080822080546001600160a01b0319166001600160a01b03861690811790915590518392907fddf252ad1be2c89b69c2b068fc378daa952ba7f163c4a11628f55a4df523b3ef908290a45050565b600062000505846001600160a01b03166200064d60201b620013441760201c565b156200064157604051630a85bd0160e11b81526001600160a01b0385169063150b7a02906200053f90339089908890889060040162000723565b602060405180830381600087803b1580156200055a57600080fd5b505af19250505080156200058d575060408051601f3d908101601f191682019092526200058a91810190620006f9565b60015b62000626573d808015620005be576040519150601f19603f3d011682016040523d82523d6000602084013e620005c3565b606091505b5080516200061e5760405162461bcd60e51b8152602060048201526032602482015260008051602062002a7883398151915260448201527131b2b4bb32b91034b6b83632b6b2b73a32b960711b606482015260840162000210565b805181602001fd5b6001600160e01b031916630a85bd0160e11b14905062000645565b5060015b949350505050565b3b151590565b8280546200066190620007b7565b90600052602060002090601f016020900481019282620006855760008555620006d0565b82601f10620006a057805160ff1916838001178555620006d0565b82800160010185558215620006d0579182015b82811115620006d0578251825591602001919060010190620006b3565b50620006de929150620006e2565b5090565b5b80821115620006de5760008155600101620006e3565b6000602082840312156200070b578081fd5b81516001600160e01b031981168114620002f3578182fd5b600060018060a01b0380871683526020818716818501528560408501526080606085015284519150816080850152825b82811015620007715785810182015185820160a00152810162000753565b8281111562000783578360a084870101525b5050601f01601f19169190910160a00195945050505050565b60008219821115620007b257620007b262000812565b500190565b600181811c90821680620007cc57607f821691505b60208210811415620007ee57634e487b7160e01b600052602260045260246000fd5b50919050565b60006000198214156200080b576200080b62000812565b5060010190565b634e487b7160e01b600052601160045260246000fd5b61224080620008386000396000f3fe6080604052600436106101fd5760003560e01c80638da5cb5b1161010d578063a0bcfc7f116100a0578063c87b56dd1161006f578063c87b56dd1461058e578063d5abeb01146105ae578063e985e9c5146105c4578063f2fde38b1461060d578063f3cb83851461062d57600080fd5b8063a0bcfc7f1461050d578063a22cb4651461052d578063b66a0e5d1461054d578063b88d4fde1461056e57600080fd5b8063977b055b116100dc578063977b055b146104ba5780639abc8320146104cf578063a035b1fe146104e4578063a0712d68146104fa57600080fd5b80638da5cb5b1461044757806391b7f5ed1461046557806395d89b41146104855780639727151a1461049a57600080fd5b806342842e0e116101905780636c9119181161015f5780636c911918146103b257806370a08231146103d2578063715018a6146103f25780637bffd755146104075780637d7ab3361461042757600080fd5b806342842e0e146103325780634f558e79146103525780636352211e146103725780636900a3ae1461039257600080fd5b806318160ddd116101cc57806318160ddd146102ba57806323b872dd146102dd578063379c5131146102fd5780633ccfd60b1461032a57600080fd5b806301ffc9a71461020957806306fdde031461023e578063081812fc14610260578063095ea7b31461029857600080fd5b3661020457005b600080fd5b34801561021557600080fd5b50610229610224366004611cc0565b61064d565b60405190151581526020015b60405180910390f35b34801561024a57600080fd5b5061025361069f565b6040516102359190611f53565b34801561026c57600080fd5b5061028061027b366004611db1565b610731565b6040516001600160a01b039091168152602001610235565b3480156102a457600080fd5b506102b86102b3366004611c5d565b6107be565b005b3480156102c657600080fd5b506102cf6108d4565b604051908152602001610235565b3480156102e957600080fd5b506102b86102f8366004611b73565b6108e4565b34801561030957600080fd5b5061031d610318366004611b1f565b610915565b6040516102359190611f0f565b6102b8610a06565b34801561033e57600080fd5b506102b861034d366004611b73565b610ad7565b34801561035e57600080fd5b5061022961036d366004611db1565b610af2565b34801561037e57600080fd5b5061028061038d366004611db1565b610afd565b34801561039e57600080fd5b506102536103ad366004611db1565b610b74565b3480156103be57600080fd5b506102b86103cd366004611c88565b610c96565b3480156103de57600080fd5b506102cf6103ed366004611b1f565b610cde565b3480156103fe57600080fd5b506102b8610d65565b34801561041357600080fd5b506102b8610422366004611dc9565b610d9b565b34801561043357600080fd5b506102b8610442366004611c88565b610e3d565b34801561045357600080fd5b506006546001600160a01b0316610280565b34801561047157600080fd5b506102b8610480366004611db1565b610e7a565b34801561049157600080fd5b50610253610ea9565b3480156104a657600080fd5b506102b86104b5366004611c5d565b610eb8565b3480156104c657600080fd5b506102cf601481565b3480156104db57600080fd5b50610253610f62565b3480156104f057600080fd5b506102cf600b5481565b6102b8610508366004611db1565b610ff0565b34801561051957600080fd5b506102b8610528366004611cf8565b6110e2565b34801561053957600080fd5b506102b8610548366004611c30565b611123565b34801561055957600080fd5b50600a5461022990600160a81b900460ff1681565b34801561057a57600080fd5b506102b8610589366004611bb3565b61112e565b34801561059a57600080fd5b506102536105a9366004611db1565b611166565b3480156105ba57600080fd5b506102cf61271081565b3480156105d057600080fd5b506102296105df366004611b3b565b6001600160a01b03918216600090815260056020908152604080832093909416825291909152205460ff1690565b34801561061957600080fd5b506102b8610628366004611b1f565b61123a565b34801561063957600080fd5b506102b8610648366004611b1f565b6112d2565b60006001600160e01b031982166380ac58cd60e01b148061067e57506001600160e01b03198216635b5e139f60e01b145b8061069957506301ffc9a760e01b6001600160e01b03198316145b92915050565b6060600080546106ae90612125565b80601f01602080910402602001604051908101604052809291908181526020018280546106da90612125565b80156107275780601f106106fc57610100808354040283529160200191610727565b820191906000526020600020905b81548152906001019060200180831161070a57829003601f168201915b5050505050905090565b600061073c8261134a565b6107a25760405162461bcd60e51b815260206004820152602c60248201527f4552433732313a20617070726f76656420717565727920666f72206e6f6e657860448201526b34b9ba32b73a103a37b5b2b760a11b60648201526084015b60405180910390fd5b506000908152600460205260409020546001600160a01b031690565b60006107c982610afd565b9050806001600160a01b0316836001600160a01b031614156108375760405162461bcd60e51b815260206004820152602160248201527f4552433732313a20617070726f76616c20746f2063757272656e74206f776e656044820152603960f91b6064820152608401610799565b336001600160a01b0382161480610853575061085381336105df565b6108c55760405162461bcd60e51b815260206004820152603860248201527f4552433732313a20617070726f76652063616c6c6572206973206e6f74206f7760448201527f6e6572206e6f7220617070726f76656420666f7220616c6c00000000000000006064820152608401610799565b6108cf8383611367565b505050565b60006108df60085490565b905090565b6108ee33826113d5565b61090a5760405162461bcd60e51b815260040161079990611fed565b6108cf8383836114bb565b606061092082610cde565b67ffffffffffffffff81111561094657634e487b7160e01b600052604160045260246000fd5b60405190808252806020026020018201604052801561096f578160200160208202803683370190505b509050600060015b60085481116109ff576109898161134a565b80156109ae5750836001600160a01b03166109a382610afd565b6001600160a01b0316145b156109ed57808383815181106109d457634e487b7160e01b600052603260045260246000fd5b6020908102919091010152816109e981612160565b9250505b806109f781612160565b915050610977565b5050919050565b6006546001600160a01b03163314610a305760405162461bcd60e51b815260040161079990611fb8565b6000610a3d6003476120af565b600c546040519192506001600160a01b03169082156108fc029083906000818181858888f19350505050610a7057600080fd5b600d546040516001600160a01b039091169082156108fc029083906000818181858888f19350505050610aa257600080fd5b600e546040516001600160a01b039091169082156108fc029083906000818181858888f19350505050610ad457600080fd5b50565b6108cf8383836040518060200160405280600081525061112e565b60006106998261134a565b6000818152600260205260408120546001600160a01b0316806106995760405162461bcd60e51b815260206004820152602960248201527f4552433732313a206f776e657220717565727920666f72206e6f6e657869737460448201526832b73a103a37b5b2b760b91b6064820152608401610799565b606081610b985750506040805180820190915260018152600360fc1b602082015290565b8160005b8115610bc25780610bac81612160565b9150610bbb9050600a836120af565b9150610b9c565b60008167ffffffffffffffff811115610beb57634e487b7160e01b600052604160045260246000fd5b6040519080825280601f01601f191660200182016040528015610c15576020820181803683370190505b5090505b8415610c8e57610c2a6001836120e2565b9150610c37600a8661217b565b610c42906030612097565b60f81b818381518110610c6557634e487b7160e01b600052603260045260246000fd5b60200101906001600160f81b031916908160001a905350610c87600a866120af565b9450610c19565b949350505050565b6006546001600160a01b03163314610cc05760405162461bcd60e51b815260040161079990611fb8565b600a8054911515600160a81b0260ff60a81b19909216919091179055565b60006001600160a01b038216610d495760405162461bcd60e51b815260206004820152602a60248201527f4552433732313a2062616c616e636520717565727920666f7220746865207a65604482015269726f206164647265737360b01b6064820152608401610799565b506001600160a01b031660009081526003602052604090205490565b6006546001600160a01b03163314610d8f5760405162461bcd60e51b815260040161079990611fb8565b610d99600061165b565b565b6006546001600160a01b03163314610dc55760405162461bcd60e51b815260040161079990611fb8565b612710610ddb83610dd560085490565b90611328565b1115610de657600080fd5b6064610df583610dd560085490565b1115610e0057600080fd5b60005b828110156108cf57610e19600880546001019055565b610e2b82610e2660085490565b6116ad565b80610e3581612160565b915050610e03565b6006546001600160a01b03163314610e675760405162461bcd60e51b815260040161079990611fb8565b600a805460ff1916911515919091179055565b6006546001600160a01b03163314610ea45760405162461bcd60e51b815260040161079990611fb8565b600b55565b6060600180546106ae90612125565b6006546001600160a01b03163314610ee25760405162461bcd60e51b815260040161079990611fb8565b60405163a9059cbb60e01b8152336004820152602481018290526001600160a01b0383169063a9059cbb90604401602060405180830381600087803b158015610f2a57600080fd5b505af1158015610f3e573d6000803e3d6000fd5b505050506040513d601f19601f820116820180604052508101906108cf9190611ca4565b60098054610f6f90612125565b80601f0160208091040260200160405190810160405280929190818152602001828054610f9b90612125565b8015610fe85780601f10610fbd57610100808354040283529160200191610fe8565b820191906000526020600020905b815481529060010190602001808311610fcb57829003601f168201915b505050505081565b600260075414156110435760405162461bcd60e51b815260206004820152601f60248201527f5265656e7472616e637947756172643a207265656e7472616e742063616c6c006044820152606401610799565b6002600755600a54600160a81b900460ff1661105e57600080fd5b601481111561106c57600080fd5b61271061107c82610dd560085490565b111561108757600080fd5b600b54349061109690836116c7565b11156110a157600080fd5b60005b818110156110d9576110ba600880546001019055565b6110c733610e2660085490565b806110d181612160565b9150506110a4565b50506001600755565b6006546001600160a01b0316331461110c5760405162461bcd60e51b815260040161079990611fb8565b805161111f906009906020840190611a48565b5050565b61111f3383836116d3565b61113833836113d5565b6111545760405162461bcd60e51b815260040161079990611fed565b611160848484846117a2565b50505050565b60606111718261134a565b61117a57600080fd5b600a5460ff166111b657600961118f83610b74565b6040516020016111a0929190611e35565b6040516020818303038152906040529050919050565b600a5460405163c87b56dd60e01b8152600481018490526101009091046001600160a01b03169063c87b56dd9060240160006040518083038186803b1580156111fe57600080fd5b505afa158015611212573d6000803e3d6000fd5b505050506040513d6000823e601f3d908101601f191682016040526106999190810190611d3e565b6006546001600160a01b031633146112645760405162461bcd60e51b815260040161079990611fb8565b6001600160a01b0381166112c95760405162461bcd60e51b815260206004820152602660248201527f4f776e61626c653a206e6577206f776e657220697320746865207a65726f206160448201526564647265737360d01b6064820152608401610799565b610ad48161165b565b6006546001600160a01b031633146112fc5760405162461bcd60e51b815260040161079990611fb8565b600a80546001600160a01b0390921661010002610100600160a81b0319909216919091179055565b5490565b60006113348284612097565b9392505050565b80546001019055565b3b151590565b6000908152600260205260409020546001600160a01b0316151590565b600081815260046020526040902080546001600160a01b0319166001600160a01b038416908117909155819061139c82610afd565b6001600160a01b03167f8c5be1e5ebec7d5bd14f71427d1e84f3dd0314c0f7b2291e5b200ac8c7c3b92560405160405180910390a45050565b60006113e08261134a565b6114415760405162461bcd60e51b815260206004820152602c60248201527f4552433732313a206f70657261746f7220717565727920666f72206e6f6e657860448201526b34b9ba32b73a103a37b5b2b760a11b6064820152608401610799565b600061144c83610afd565b9050806001600160a01b0316846001600160a01b031614806114875750836001600160a01b031661147c84610731565b6001600160a01b0316145b80610c8e57506001600160a01b0380821660009081526005602090815260408083209388168352929052205460ff16610c8e565b826001600160a01b03166114ce82610afd565b6001600160a01b0316146115365760405162461bcd60e51b815260206004820152602960248201527f4552433732313a207472616e73666572206f6620746f6b656e2074686174206960448201526839903737ba1037bbb760b91b6064820152608401610799565b6001600160a01b0382166115985760405162461bcd60e51b8152602060048201526024808201527f4552433732313a207472616e7366657220746f20746865207a65726f206164646044820152637265737360e01b6064820152608401610799565b6115a3600082611367565b6001600160a01b03831660009081526003602052604081208054600192906115cc9084906120e2565b90915550506001600160a01b03821660009081526003602052604081208054600192906115fa908490612097565b909155505060008181526002602052604080822080546001600160a01b0319166001600160a01b0386811691821790925591518493918716917fddf252ad1be2c89b69c2b068fc378daa952ba7f163c4a11628f55a4df523b3ef91a4505050565b600680546001600160a01b038381166001600160a01b0319831681179093556040519116919082907f8be0079c531659141344cd1fd0a4f28419497f9722a3daafe3b4186f6b6457e090600090a35050565b61111f8282604051806020016040528060008152506117d5565b600061133482846120c3565b816001600160a01b0316836001600160a01b031614156117355760405162461bcd60e51b815260206004820152601960248201527f4552433732313a20617070726f766520746f2063616c6c6572000000000000006044820152606401610799565b6001600160a01b03838116600081815260056020908152604080832094871680845294825291829020805460ff191686151590811790915591519182527f17307eab39ab6107e8899845ad3d59bd9653f200f220920489ca2b5937696c31910160405180910390a3505050565b6117ad8484846114bb565b6117b984848484611808565b6111605760405162461bcd60e51b815260040161079990611f66565b6117df8383611915565b6117ec6000848484611808565b6108cf5760405162461bcd60e51b815260040161079990611f66565b60006001600160a01b0384163b1561190a57604051630a85bd0160e11b81526001600160a01b0385169063150b7a029061184c903390899088908890600401611ed2565b602060405180830381600087803b15801561186657600080fd5b505af1925050508015611896575060408051601f3d908101601f1916820190925261189391810190611cdc565b60015b6118f0573d8080156118c4576040519150601f19603f3d011682016040523d82523d6000602084013e6118c9565b606091505b5080516118e85760405162461bcd60e51b815260040161079990611f66565b805181602001fd5b6001600160e01b031916630a85bd0160e11b149050610c8e565b506001949350505050565b6001600160a01b03821661196b5760405162461bcd60e51b815260206004820181905260248201527f4552433732313a206d696e7420746f20746865207a65726f20616464726573736044820152606401610799565b6119748161134a565b156119c15760405162461bcd60e51b815260206004820152601c60248201527f4552433732313a20746f6b656e20616c7265616479206d696e746564000000006044820152606401610799565b6001600160a01b03821660009081526003602052604081208054600192906119ea908490612097565b909155505060008181526002602052604080822080546001600160a01b0319166001600160a01b03861690811790915590518392907fddf252ad1be2c89b69c2b068fc378daa952ba7f163c4a11628f55a4df523b3ef908290a45050565b828054611a5490612125565b90600052602060002090601f016020900481019282611a765760008555611abc565b82601f10611a8f57805160ff1916838001178555611abc565b82800160010185558215611abc579182015b82811115611abc578251825591602001919060010190611aa1565b50611ac8929150611acc565b5090565b5b80821115611ac85760008155600101611acd565b6000611af4611aef8461206f565b61203e565b9050828152838383011115611b0857600080fd5b828260208301376000602084830101529392505050565b600060208284031215611b30578081fd5b8135611334816121d1565b60008060408385031215611b4d578081fd5b8235611b58816121d1565b91506020830135611b68816121d1565b809150509250929050565b600080600060608486031215611b87578081fd5b8335611b92816121d1565b92506020840135611ba2816121d1565b929592945050506040919091013590565b60008060008060808587031215611bc8578081fd5b8435611bd3816121d1565b93506020850135611be3816121d1565b925060408501359150606085013567ffffffffffffffff811115611c05578182fd5b8501601f81018713611c15578182fd5b611c2487823560208401611ae1565b91505092959194509250565b60008060408385031215611c42578182fd5b8235611c4d816121d1565b91506020830135611b68816121e6565b60008060408385031215611c6f578182fd5b8235611c7a816121d1565b946020939093013593505050565b600060208284031215611c99578081fd5b8135611334816121e6565b600060208284031215611cb5578081fd5b8151611334816121e6565b600060208284031215611cd1578081fd5b8135611334816121f4565b600060208284031215611ced578081fd5b8151611334816121f4565b600060208284031215611d09578081fd5b813567ffffffffffffffff811115611d1f578182fd5b8201601f81018413611d2f578182fd5b610c8e84823560208401611ae1565b600060208284031215611d4f578081fd5b815167ffffffffffffffff811115611d65578182fd5b8201601f81018413611d75578182fd5b8051611d83611aef8261206f565b818152856020838501011115611d97578384fd5b611da88260208301602086016120f9565b95945050505050565b600060208284031215611dc2578081fd5b5035919050565b60008060408385031215611ddb578182fd5b823591506020830135611b68816121d1565b60008151808452611e058160208601602086016120f9565b601f01601f19169290920160200192915050565b60008151611e2b8185602086016120f9565b9290920192915050565b600080845482600182811c915080831680611e5157607f831692505b6020808410821415611e7157634e487b7160e01b87526022600452602487fd5b818015611e855760018114611e9657611ec2565b60ff19861689528489019650611ec2565b60008b815260209020885b86811015611eba5781548b820152908501908301611ea1565b505084890196505b505050505050611da88185611e19565b6001600160a01b0385811682528416602082015260408101839052608060608201819052600090611f0590830184611ded565b9695505050505050565b6020808252825182820181905260009190848201906040850190845b81811015611f4757835183529284019291840191600101611f2b565b50909695505050505050565b6020815260006113346020830184611ded565b60208082526032908201527f4552433732313a207472616e7366657220746f206e6f6e20455243373231526560408201527131b2b4bb32b91034b6b83632b6b2b73a32b960711b606082015260800190565b6020808252818101527f4f776e61626c653a2063616c6c6572206973206e6f7420746865206f776e6572604082015260600190565b60208082526031908201527f4552433732313a207472616e736665722063616c6c6572206973206e6f74206f6040820152701ddb995c881b9bdc88185c1c1c9bdd9959607a1b606082015260800190565b604051601f8201601f1916810167ffffffffffffffff81118282101715612067576120676121bb565b604052919050565b600067ffffffffffffffff821115612089576120896121bb565b50601f01601f191660200190565b600082198211156120aa576120aa61218f565b500190565b6000826120be576120be6121a5565b500490565b60008160001904831182151516156120dd576120dd61218f565b500290565b6000828210156120f4576120f461218f565b500390565b60005b838110156121145781810151838201526020016120fc565b838111156111605750506000910152565b600181811c9082168061213957607f821691505b6020821081141561215a57634e487b7160e01b600052602260045260246000fd5b50919050565b60006000198214156121745761217461218f565b5060010190565b60008261218a5761218a6121a5565b500690565b634e487b7160e01b600052601160045260246000fd5b634e487b7160e01b600052601260045260246000fd5b634e487b7160e01b600052604160045260246000fd5b6001600160a01b0381168114610ad457600080fd5b8015158114610ad457600080fd5b6001600160e01b031981168114610ad457600080fdfea2646970667358221220136a6a9b712d90c5ad2be608075b14320d023031a7de3c2db831092d5fbbd48764736f6c634300080400334552433732313a207472616e7366657220746f206e6f6e204552433732315265",
  "immutableReferences": {},
  "source": "\n//\n// SPDX-License-Identifier: MIT\n\npragma solidity ^0.8.4;\n\nimport \"@openzeppelin/contracts/security/ReentrancyGuard.sol\";\nimport '@openzeppelin/contracts/token/ERC721/ERC721.sol';\nimport '@openzeppelin/contracts/access/Ownable.sol';\nimport \"@openzeppelin/contracts/utils/Counters.sol\";\nimport '@openzeppelin/contracts/token/ERC20/IERC20.sol';\nimport '@openzeppelin/contracts/token/ERC721/IERC721.sol';\nimport '@openzeppelin/contracts/utils/math/SafeMath.sol';\n\ncontract CryptoSuits is ERC721, Ownable, ReentrancyGuard {\n    using SafeMath for uint256;\n    using Counters for Counters.Counter;\n    Counters.Counter private _tokenIds;\n\n    string public baseUri;\n    bool private onchain;\n    ERC721 metadata;\n\n    // Sales\n    bool public startSale;\n    uint256 public price = .03 ether;\n    uint public constant maxPurchase = 20;\n    uint public constant maxSupply = 10000;\n    uint private constant maxTeamMint = 100;\n\n    // Team\n    address private sara = 0x00796e910Bd0228ddF4cd79e3f353871a61C351C;\n    address private greg = 0x3FF9f20B191C78Cae66103926E4536049AC4b944;\n    address private steve = 0xBa48044540aB8cDAEe47a338844100a0aE756a8d;\n\n    constructor() ERC721(\"CryptoSuits\", \"CRYPTOSUIT\") {\n        mintTeam(10, sara);\n        mintTeam(10, greg);\n        mintTeam(10, steve);\n    }\n\n    function totalSupply() public view returns(uint256) {\n        return _tokenIds.current();\n    }\n\n    function exists(uint256 tokenId) public view returns(bool) {\n        return _exists(tokenId);\n    }\n\n    function mint(uint numberOfTokens) public payable nonReentrant {\n        require(startSale);\n        require(numberOfTokens <= maxPurchase);\n        require(_tokenIds.current().add(numberOfTokens) <= maxSupply);\n        require(price.mul(numberOfTokens) <= msg.value);\n\n        for(uint i = 0; i < numberOfTokens; i++) {\n            _tokenIds.increment();\n            _safeMint(msg.sender, _tokenIds.current());\n        }\n    }\n\n    function mintTeam(uint256 numberOfTokens, address receiver) public onlyOwner {\n        require(_tokenIds.current().add(numberOfTokens) <= maxSupply);\n        require(_tokenIds.current().add(numberOfTokens) <= maxTeamMint);\n        for(uint i = 0; i < numberOfTokens; i++) {\n            _tokenIds.increment();\n            _safeMint(receiver, _tokenIds.current());\n        }\n    }\n\n    function getByOwner(address owner) view public returns(uint256[] memory result) {\n        result = new uint256[](balanceOf(owner));\n        uint256 resultIndex = 0;\n        for (uint256 t = 1; t <= _tokenIds.current(); t++) {\n            if (_exists(t) && ownerOf(t) == owner) {\n                result[resultIndex] = t;\n                resultIndex++;\n            }\n        }\n    }\n\n    function setBaseUri(string memory _baseUri) public onlyOwner {\n        baseUri = _baseUri;\n    }\n\n    function setSaleStart(bool _startSale) public onlyOwner {\n        startSale = _startSale;\n    }\n\n    function setPrice(uint256 _price) public onlyOwner {\n        price = _price;\n    }\n\n    function setMetadata(address _metadata) public onlyOwner {\n        metadata = ERC721(_metadata);\n    }\n\n    function setOnchain(bool _onchain) public onlyOwner {\n        onchain = _onchain;\n    }\n\n    function withdraw() public payable onlyOwner {\n        uint256 _each = address(this).balance / 3;\n        require(payable(sara).send(_each));\n        require(payable(greg).send(_each));\n        require(payable(steve).send(_each));\n    }\n\n    function forwardERC20s(IERC20 _token, uint256 _amount) public onlyOwner {\n        _token.transfer(msg.sender, _amount);\n    }\n\n    /*\n    *   Overrides\n    */\n    function tokenURI(uint256 tokenId) override public view returns (string memory output) {\n        require(_exists(tokenId));\n        if(!onchain) {\n            output = string(abi.encodePacked(baseUri, toString(tokenId)));\n        } else {\n            output = metadata.tokenURI(tokenId);\n        }\n    }\n\n    function _baseURI() internal view override returns (string memory) {\n        return baseUri;\n    }\n\n\n    function toString(uint256 value) public pure returns (string memory) {\n        if (value == 0) {\n            return \"0\";\n        }\n        uint256 temp = value;\n        uint256 digits;\n        while (temp != 0) {\n            digits++;\n            temp /= 10;\n        }\n        bytes memory buffer = new bytes(digits);\n        while (value != 0) {\n            digits -= 1;\n            buffer[digits] = bytes1(uint8(48 + uint256(value % 10)));\n            value /= 10;\n        }\n        return string(buffer);\n    }\n\n    receive () external payable virtual {}\n}\n",
  "sourcePath": "/Users/Shared/Code/experimental/cryptosuits/cryptosuits-api/contracts/CryptoSuits.sol",
  "compiler": {
    "name": "solc",
    "version": "0.8.4+commit.c7e474f2.Emscripten.clang"
  },
  "schemaVersion": "3.4.1",
  "updatedAt": "2022-02-14T15:25:03.625Z",
  "networkType": "ethereum",
  "devdoc": {
    "kind": "dev",
    "methods": {
      "approve(address,uint256)": {
        "details": "See {IERC721-approve}."
      },
      "balanceOf(address)": {
        "details": "See {IERC721-balanceOf}."
      },
      "getApproved(uint256)": {
        "details": "See {IERC721-getApproved}."
      },
      "isApprovedForAll(address,address)": {
        "details": "See {IERC721-isApprovedForAll}."
      },
      "name()": {
        "details": "See {IERC721Metadata-name}."
      },
      "owner()": {
        "details": "Returns the address of the current owner."
      },
      "ownerOf(uint256)": {
        "details": "See {IERC721-ownerOf}."
      },
      "renounceOwnership()": {
        "details": "Leaves the contract without owner. It will not be possible to call `onlyOwner` functions anymore. Can only be called by the current owner. NOTE: Renouncing ownership will leave the contract without an owner, thereby removing any functionality that is only available to the owner."
      },
      "safeTransferFrom(address,address,uint256)": {
        "details": "See {IERC721-safeTransferFrom}."
      },
      "safeTransferFrom(address,address,uint256,bytes)": {
        "details": "See {IERC721-safeTransferFrom}."
      },
      "setApprovalForAll(address,bool)": {
        "details": "See {IERC721-setApprovalForAll}."
      },
      "supportsInterface(bytes4)": {
        "details": "See {IERC165-supportsInterface}."
      },
      "symbol()": {
        "details": "See {IERC721Metadata-symbol}."
      },
      "tokenURI(uint256)": {
        "details": "See {IERC721Metadata-tokenURI}."
      },
      "transferFrom(address,address,uint256)": {
        "details": "See {IERC721-transferFrom}."
      },
      "transferOwnership(address)": {
        "details": "Transfers ownership of the contract to a new account (`newOwner`). Can only be called by the current owner."
      }
    },
    "version": 1
  },
  "userdoc": {
    "kind": "user",
    "methods": {},
    "version": 1
  }
}