{
  "contractName": "CryptoSuits",
  "abi": [
    {
      "inputs": [],
      "stateMutability": "nonpayable",
      "type": "constructor"
    },
    {
      "anonymous": false,
      "inputs": [
        {
          "indexed": true,
          "internalType": "address",
          "name": "owner",
          "type": "address"
        },
        {
          "indexed": true,
          "internalType": "address",
          "name": "approved",
          "type": "address"
        },
        {
          "indexed": true,
          "internalType": "uint256",
          "name": "tokenId",
          "type": "uint256"
        }
      ],
      "name": "Approval",
      "type": "event"
    },
    {
      "anonymous": false,
      "inputs": [
        {
          "indexed": true,
          "internalType": "address",
          "name": "owner",
          "type": "address"
        },
        {
          "indexed": true,
          "internalType": "address",
          "name": "operator",
          "type": "address"
        },
        {
          "indexed": false,
          "internalType": "bool",
          "name": "approved",
          "type": "bool"
        }
      ],
      "name": "ApprovalForAll",
      "type": "event"
    },
    {
      "anonymous": false,
      "inputs": [
        {
          "indexed": true,
          "internalType": "address",
          "name": "previousOwner",
          "type": "address"
        },
        {
          "indexed": true,
          "internalType": "address",
          "name": "newOwner",
          "type": "address"
        }
      ],
      "name": "OwnershipTransferred",
      "type": "event"
    },
    {
      "anonymous": false,
      "inputs": [
        {
          "indexed": true,
          "internalType": "address",
          "name": "from",
          "type": "address"
        },
        {
          "indexed": true,
          "internalType": "address",
          "name": "to",
          "type": "address"
        },
        {
          "indexed": true,
          "internalType": "uint256",
          "name": "tokenId",
          "type": "uint256"
        }
      ],
      "name": "Transfer",
      "type": "event"
    },
    {
      "inputs": [
        {
          "internalType": "address",
          "name": "to",
          "type": "address"
        },
        {
          "internalType": "uint256",
          "name": "tokenId",
          "type": "uint256"
        }
      ],
      "name": "approve",
      "outputs": [],
      "stateMutability": "nonpayable",
      "type": "function"
    },
    {
      "inputs": [
        {
          "internalType": "address",
          "name": "owner",
          "type": "address"
        }
      ],
      "name": "balanceOf",
      "outputs": [
        {
          "internalType": "uint256",
          "name": "",
          "type": "uint256"
        }
      ],
      "stateMutability": "view",
      "type": "function"
    },
    {
      "inputs": [],
      "name": "baseUri",
      "outputs": [
        {
          "internalType": "string",
          "name": "",
          "type": "string"
        }
      ],
      "stateMutability": "view",
      "type": "function"
    },
    {
      "inputs": [
        {
          "internalType": "uint256",
          "name": "tokenId",
          "type": "uint256"
        }
      ],
      "name": "getApproved",
      "outputs": [
        {
          "internalType": "address",
          "name": "",
          "type": "address"
        }
      ],
      "stateMutability": "view",
      "type": "function"
    },
    {
      "inputs": [
        {
          "internalType": "address",
          "name": "owner",
          "type": "address"
        },
        {
          "internalType": "address",
          "name": "operator",
          "type": "address"
        }
      ],
      "name": "isApprovedForAll",
      "outputs": [
        {
          "internalType": "bool",
          "name": "",
          "type": "bool"
        }
      ],
      "stateMutability": "view",
      "type": "function"
    },
    {
      "inputs": [],
      "name": "maxPurchase",
      "outputs": [
        {
          "internalType": "uint256",
          "name": "",
          "type": "uint256"
        }
      ],
      "stateMutability": "view",
      "type": "function"
    },
    {
      "inputs": [],
      "name": "maxSupply",
      "outputs": [
        {
          "internalType": "uint256",
          "name": "",
          "type": "uint256"
        }
      ],
      "stateMutability": "view",
      "type": "function"
    },
    {
      "inputs": [],
      "name": "name",
      "outputs": [
        {
          "internalType": "string",
          "name": "",
          "type": "string"
        }
      ],
      "stateMutability": "view",
      "type": "function"
    },
    {
      "inputs": [],
      "name": "owner",
      "outputs": [
        {
          "internalType": "address",
          "name": "",
          "type": "address"
        }
      ],
      "stateMutability": "view",
      "type": "function"
    },
    {
      "inputs": [
        {
          "internalType": "uint256",
          "name": "tokenId",
          "type": "uint256"
        }
      ],
      "name": "ownerOf",
      "outputs": [
        {
          "internalType": "address",
          "name": "",
          "type": "address"
        }
      ],
      "stateMutability": "view",
      "type": "function"
    },
    {
      "inputs": [],
      "name": "price",
      "outputs": [
        {
          "internalType": "uint256",
          "name": "",
          "type": "uint256"
        }
      ],
      "stateMutability": "view",
      "type": "function"
    },
    {
      "inputs": [],
      "name": "renounceOwnership",
      "outputs": [],
      "stateMutability": "nonpayable",
      "type": "function"
    },
    {
      "inputs": [
        {
          "internalType": "address",
          "name": "from",
          "type": "address"
        },
        {
          "internalType": "address",
          "name": "to",
          "type": "address"
        },
        {
          "internalType": "uint256",
          "name": "tokenId",
          "type": "uint256"
        }
      ],
      "name": "safeTransferFrom",
      "outputs": [],
      "stateMutability": "nonpayable",
      "type": "function"
    },
    {
      "inputs": [
        {
          "internalType": "address",
          "name": "from",
          "type": "address"
        },
        {
          "internalType": "address",
          "name": "to",
          "type": "address"
        },
        {
          "internalType": "uint256",
          "name": "tokenId",
          "type": "uint256"
        },
        {
          "internalType": "bytes",
          "name": "_data",
          "type": "bytes"
        }
      ],
      "name": "safeTransferFrom",
      "outputs": [],
      "stateMutability": "nonpayable",
      "type": "function"
    },
    {
      "inputs": [
        {
          "internalType": "address",
          "name": "operator",
          "type": "address"
        },
        {
          "internalType": "bool",
          "name": "approved",
          "type": "bool"
        }
      ],
      "name": "setApprovalForAll",
      "outputs": [],
      "stateMutability": "nonpayable",
      "type": "function"
    },
    {
      "inputs": [],
      "name": "startSale",
      "outputs": [
        {
          "internalType": "bool",
          "name": "",
          "type": "bool"
        }
      ],
      "stateMutability": "view",
      "type": "function"
    },
    {
      "inputs": [
        {
          "internalType": "bytes4",
          "name": "interfaceId",
          "type": "bytes4"
        }
      ],
      "name": "supportsInterface",
      "outputs": [
        {
          "internalType": "bool",
          "name": "",
          "type": "bool"
        }
      ],
      "stateMutability": "view",
      "type": "function"
    },
    {
      "inputs": [],
      "name": "symbol",
      "outputs": [
        {
          "internalType": "string",
          "name": "",
          "type": "string"
        }
      ],
      "stateMutability": "view",
      "type": "function"
    },
    {
      "inputs": [
        {
          "internalType": "address",
          "name": "from",
          "type": "address"
        },
        {
          "internalType": "address",
          "name": "to",
          "type": "address"
        },
        {
          "internalType": "uint256",
          "name": "tokenId",
          "type": "uint256"
        }
      ],
      "name": "transferFrom",
      "outputs": [],
      "stateMutability": "nonpayable",
      "type": "function"
    },
    {
      "inputs": [
        {
          "internalType": "address",
          "name": "newOwner",
          "type": "address"
        }
      ],
      "name": "transferOwnership",
      "outputs": [],
      "stateMutability": "nonpayable",
      "type": "function"
    },
    {
      "stateMutability": "payable",
      "type": "receive"
    },
    {
      "inputs": [],
      "name": "totalSupply",
      "outputs": [
        {
          "internalType": "uint256",
          "name": "",
          "type": "uint256"
        }
      ],
      "stateMutability": "view",
      "type": "function"
    },
    {
      "inputs": [
        {
          "internalType": "uint256",
          "name": "tokenId",
          "type": "uint256"
        }
      ],
      "name": "exists",
      "outputs": [
        {
          "internalType": "bool",
          "name": "",
          "type": "bool"
        }
      ],
      "stateMutability": "view",
      "type": "function"
    },
    {
      "inputs": [
        {
          "internalType": "uint256",
          "name": "numberOfTokens",
          "type": "uint256"
        }
      ],
      "name": "mint",
      "outputs": [],
      "stateMutability": "payable",
      "type": "function"
    },
    {
      "inputs": [
        {
          "internalType": "uint256",
          "name": "numberOfTokens",
          "type": "uint256"
        },
        {
          "internalType": "address",
          "name": "receiver",
          "type": "address"
        }
      ],
      "name": "mintTeam",
      "outputs": [],
      "stateMutability": "nonpayable",
      "type": "function"
    },
    {
      "inputs": [
        {
          "internalType": "address",
          "name": "owner",
          "type": "address"
        }
      ],
      "name": "getByOwner",
      "outputs": [
        {
          "internalType": "uint256[]",
          "name": "result",
          "type": "uint256[]"
        }
      ],
      "stateMutability": "view",
      "type": "function"
    },
    {
      "inputs": [
        {
          "internalType": "string",
          "name": "_baseUri",
          "type": "string"
        }
      ],
      "name": "setBaseUri",
      "outputs": [],
      "stateMutability": "nonpayable",
      "type": "function"
    },
    {
      "inputs": [
        {
          "internalType": "bool",
          "name": "_startSale",
          "type": "bool"
        }
      ],
      "name": "setSaleStart",
      "outputs": [],
      "stateMutability": "nonpayable",
      "type": "function"
    },
    {
      "inputs": [
        {
          "internalType": "uint256",
          "name": "_price",
          "type": "uint256"
        }
      ],
      "name": "setPrice",
      "outputs": [],
      "stateMutability": "nonpayable",
      "type": "function"
    },
    {
      "inputs": [
        {
          "internalType": "address",
          "name": "_metadata",
          "type": "address"
        }
      ],
      "name": "setMetadata",
      "outputs": [],
      "stateMutability": "nonpayable",
      "type": "function"
    },
    {
      "inputs": [
        {
          "internalType": "bool",
          "name": "_onchain",
          "type": "bool"
        }
      ],
      "name": "setOnchain",
      "outputs": [],
      "stateMutability": "nonpayable",
      "type": "function"
    },
    {
      "inputs": [],
      "name": "withdraw",
      "outputs": [],
      "stateMutability": "payable",
      "type": "function"
    },
    {
      "inputs": [
        {
          "internalType": "contract IERC20",
          "name": "_token",
          "type": "address"
        },
        {
          "internalType": "uint256",
          "name": "_amount",
          "type": "uint256"
        }
      ],
      "name": "forwardERC20s",
      "outputs": [],
      "stateMutability": "nonpayable",
      "type": "function"
    },
    {
      "inputs": [
        {
          "internalType": "uint256",
          "name": "tokenId",
          "type": "uint256"
        }
      ],
      "name": "tokenURI",
      "outputs": [
        {
          "internalType": "string",
          "name": "output",
          "type": "string"
        }
      ],
      "stateMutability": "view",
      "type": "function"
    }
  ],
  "bytecode": "0x60c0604052602060808190527f68747470733a2f2f6170692e63727970746f73756974732e696f2f6a736f6e2f60a0908152620000409160099190620001a8565b50666a94d74f430000600b55600c80546001600160a01b031990811672796e910bd0228ddf4cd79e3f353871a61c351c17909155600d80548216733ff9f20b191c78cae66103926e4536049ac4b944179055600e805490911673ba48044540ab8cdaee47a338844100a0ae756a8d179055348015620000be57600080fd5b50604080518082018252600b81526a43727970746f537569747360a81b60208083019182528351808501909452600a84526910d496541513d4d5525560b21b9084015281519192916200011491600091620001a8565b5080516200012a906001906020840190620001a8565b50505062000147620001416200015260201b60201c565b62000156565b60016007556200028b565b3390565b600680546001600160a01b038381166001600160a01b0319831681179093556040519116919082907f8be0079c531659141344cd1fd0a4f28419497f9722a3daafe3b4186f6b6457e090600090a35050565b828054620001b6906200024e565b90600052602060002090601f016020900481019282620001da576000855562000225565b82601f10620001f557805160ff191683800117855562000225565b8280016001018555821562000225579182015b828111156200022557825182559160200191906001019062000208565b506200023392915062000237565b5090565b5b8082111562000233576000815560010162000238565b600181811c908216806200026357607f821691505b602082108114156200028557634e487b7160e01b600052602260045260246000fd5b50919050565b6121aa806200029b6000396000f3fe6080604052600436106101f25760003560e01c80638da5cb5b1161010d578063a0bcfc7f116100a0578063c87b56dd1161006f578063c87b56dd14610563578063d5abeb0114610583578063e985e9c514610599578063f2fde38b146105e2578063f3cb83851461060257600080fd5b8063a0bcfc7f146104e2578063a22cb46514610502578063b66a0e5d14610522578063b88d4fde1461054357600080fd5b8063977b055b116100dc578063977b055b1461048f5780639abc8320146104a4578063a035b1fe146104b9578063a0712d68146104cf57600080fd5b80638da5cb5b1461041c57806391b7f5ed1461043a57806395d89b411461045a5780639727151a1461046f57600080fd5b806342842e0e1161018557806370a082311161015457806370a08231146103a7578063715018a6146103c75780637bffd755146103dc5780637d7ab336146103fc57600080fd5b806342842e0e146103275780634f558e79146103475780636352211e146103675780636c9119181461038757600080fd5b806318160ddd116101c157806318160ddd146102af57806323b872dd146102d2578063379c5131146102f25780633ccfd60b1461031f57600080fd5b806301ffc9a7146101fe57806306fdde0314610233578063081812fc14610255578063095ea7b31461028d57600080fd5b366101f957005b600080fd5b34801561020a57600080fd5b5061021e610219366004611c63565b610622565b60405190151581526020015b60405180910390f35b34801561023f57600080fd5b50610248610674565b60405161022a9190611edb565b34801561026157600080fd5b50610275610270366004611d54565b610706565b6040516001600160a01b03909116815260200161022a565b34801561029957600080fd5b506102ad6102a8366004611c00565b610793565b005b3480156102bb57600080fd5b506102c46108a9565b60405190815260200161022a565b3480156102de57600080fd5b506102ad6102ed366004611b16565b6108b9565b3480156102fe57600080fd5b5061031261030d366004611ac2565b6108ea565b60405161022a9190611e97565b6102ad6109db565b34801561033357600080fd5b506102ad610342366004611b16565b610aac565b34801561035357600080fd5b5061021e610362366004611d54565b610ac7565b34801561037357600080fd5b50610275610382366004611d54565b610ad2565b34801561039357600080fd5b506102ad6103a2366004611c2b565b610b49565b3480156103b357600080fd5b506102c46103c2366004611ac2565b610b91565b3480156103d357600080fd5b506102ad610c18565b3480156103e857600080fd5b506102ad6103f7366004611d6c565b610c4e565b34801561040857600080fd5b506102ad610417366004611c2b565b610d11565b34801561042857600080fd5b506006546001600160a01b0316610275565b34801561044657600080fd5b506102ad610455366004611d54565b610d4e565b34801561046657600080fd5b50610248610d7d565b34801561047b57600080fd5b506102ad61048a366004611c00565b610d8c565b34801561049b57600080fd5b506102c4601481565b3480156104b057600080fd5b50610248610e36565b3480156104c557600080fd5b506102c4600b5481565b6102ad6104dd366004611d54565b610ec4565b3480156104ee57600080fd5b506102ad6104fd366004611c9b565b61109c565b34801561050e57600080fd5b506102ad61051d366004611bd3565b6110dd565b34801561052e57600080fd5b50600a5461021e90600160a81b900460ff1681565b34801561054f57600080fd5b506102ad61055e366004611b56565b6110e8565b34801561056f57600080fd5b5061024861057e366004611d54565b611120565b34801561058f57600080fd5b506102c461271081565b3480156105a557600080fd5b5061021e6105b4366004611ade565b6001600160a01b03918216600090815260056020908152604080832093909416825291909152205460ff1690565b3480156105ee57600080fd5b506102ad6105fd366004611ac2565b6111ec565b34801561060e57600080fd5b506102ad61061d366004611ac2565b611284565b60006001600160e01b031982166380ac58cd60e01b148061065357506001600160e01b03198216635b5e139f60e01b145b8061066e57506301ffc9a760e01b6001600160e01b03198316145b92915050565b606060008054610683906120b9565b80601f01602080910402602001604051908101604052809291908181526020018280546106af906120b9565b80156106fc5780601f106106d1576101008083540402835291602001916106fc565b820191906000526020600020905b8154815290600101906020018083116106df57829003601f168201915b5050505050905090565b6000610711826112d6565b6107775760405162461bcd60e51b815260206004820152602c60248201527f4552433732313a20617070726f76656420717565727920666f72206e6f6e657860448201526b34b9ba32b73a103a37b5b2b760a11b60648201526084015b60405180910390fd5b506000908152600460205260409020546001600160a01b031690565b600061079e82610ad2565b9050806001600160a01b0316836001600160a01b0316141561080c5760405162461bcd60e51b815260206004820152602160248201527f4552433732313a20617070726f76616c20746f2063757272656e74206f776e656044820152603960f91b606482015260840161076e565b336001600160a01b0382161480610828575061082881336105b4565b61089a5760405162461bcd60e51b815260206004820152603860248201527f4552433732313a20617070726f76652063616c6c6572206973206e6f74206f7760448201527f6e6572206e6f7220617070726f76656420666f7220616c6c0000000000000000606482015260840161076e565b6108a483836112f3565b505050565b60006108b460085490565b905090565b6108c33382611361565b6108df5760405162461bcd60e51b815260040161076e90611f75565b6108a483838361144b565b60606108f582610b91565b67ffffffffffffffff81111561091b57634e487b7160e01b600052604160045260246000fd5b604051908082528060200260200182016040528015610944578160200160208202803683370190505b509050600060015b60085481116109d45761095e816112d6565b80156109835750836001600160a01b031661097882610ad2565b6001600160a01b0316145b156109c257808383815181106109a957634e487b7160e01b600052603260045260246000fd5b6020908102919091010152816109be816120f4565b9250505b806109cc816120f4565b91505061094c565b5050919050565b6006546001600160a01b03163314610a055760405162461bcd60e51b815260040161076e90611f40565b6000610a12600347612037565b600c546040519192506001600160a01b03169082156108fc029083906000818181858888f19350505050610a4557600080fd5b600d546040516001600160a01b039091169082156108fc029083906000818181858888f19350505050610a7757600080fd5b600e546040516001600160a01b039091169082156108fc029083906000818181858888f19350505050610aa957600080fd5b50565b6108a4838383604051806020016040528060008152506110e8565b600061066e826112d6565b6000818152600260205260408120546001600160a01b03168061066e5760405162461bcd60e51b815260206004820152602960248201527f4552433732313a206f776e657220717565727920666f72206e6f6e657869737460448201526832b73a103a37b5b2b760b91b606482015260840161076e565b6006546001600160a01b03163314610b735760405162461bcd60e51b815260040161076e90611f40565b600a8054911515600160a81b0260ff60a81b19909216919091179055565b60006001600160a01b038216610bfc5760405162461bcd60e51b815260206004820152602a60248201527f4552433732313a2062616c616e636520717565727920666f7220746865207a65604482015269726f206164647265737360b01b606482015260840161076e565b506001600160a01b031660009081526003602052604090205490565b6006546001600160a01b03163314610c425760405162461bcd60e51b815260040161076e90611f40565b610c4c60006115eb565b565b6006546001600160a01b03163314610c785760405162461bcd60e51b815260040161076e90611f40565b612710610c8e83610c8860085490565b9061163d565b1115610cd45760405162461bcd60e51b8152602060048201526015602482015274457863656564696e67206d617820737570706c792160581b604482015260640161076e565b60005b828110156108a457610ced600880546001019055565b610cff82610cfa60085490565b611650565b80610d09816120f4565b915050610cd7565b6006546001600160a01b03163314610d3b5760405162461bcd60e51b815260040161076e90611f40565b600a805460ff1916911515919091179055565b6006546001600160a01b03163314610d785760405162461bcd60e51b815260040161076e90611f40565b600b55565b606060018054610683906120b9565b6006546001600160a01b03163314610db65760405162461bcd60e51b815260040161076e90611f40565b60405163a9059cbb60e01b8152336004820152602481018290526001600160a01b0383169063a9059cbb90604401602060405180830381600087803b158015610dfe57600080fd5b505af1158015610e12573d6000803e3d6000fd5b505050506040513d601f19601f820116820180604052508101906108a49190611c47565b60098054610e43906120b9565b80601f0160208091040260200160405190810160405280929190818152602001828054610e6f906120b9565b8015610ebc5780601f10610e9157610100808354040283529160200191610ebc565b820191906000526020600020905b815481529060010190602001808311610e9f57829003601f168201915b505050505081565b60026007541415610f175760405162461bcd60e51b815260206004820152601f60248201527f5265656e7472616e637947756172643a207265656e7472616e742063616c6c00604482015260640161076e565b6002600755600a54600160a81b900460ff16610f755760405162461bcd60e51b815260206004820152601b60248201527f5761697420666f72207468652073616c6520746f207374617274210000000000604482015260640161076e565b6014811115610fb45760405162461bcd60e51b815260206004820152600b60248201526a4d6178696d756d2032302160a81b604482015260640161076e565b612710610fc482610c8860085490565b111561100a5760405162461bcd60e51b8152602060048201526015602482015274457863656564696e67206d617820737570706c792160581b604482015260640161076e565b600b543490611019908361166a565b111561105b5760405162461bcd60e51b81526020600482015260116024820152702237b73a10333ab1b59030b937bab7321760791b604482015260640161076e565b60005b8181101561109357611074600880546001019055565b61108133610cfa60085490565b8061108b816120f4565b91505061105e565b50506001600755565b6006546001600160a01b031633146110c65760405162461bcd60e51b815260040161076e90611f40565b80516110d99060099060208401906119eb565b5050565b6110d9338383611676565b6110f23383611361565b61110e5760405162461bcd60e51b815260040161076e90611f75565b61111a84848484611745565b50505050565b606061112b826112d6565b61113457600080fd5b600a5460ff1661116857600982604051602001611152929190611dbc565b6040516020818303038152906040529050919050565b600a5460405163c87b56dd60e01b8152600481018490526101009091046001600160a01b03169063c87b56dd9060240160006040518083038186803b1580156111b057600080fd5b505afa1580156111c4573d6000803e3d6000fd5b505050506040513d6000823e601f3d908101601f1916820160405261066e9190810190611ce1565b6006546001600160a01b031633146112165760405162461bcd60e51b815260040161076e90611f40565b6001600160a01b03811661127b5760405162461bcd60e51b815260206004820152602660248201527f4f776e61626c653a206e6577206f776e657220697320746865207a65726f206160448201526564647265737360d01b606482015260840161076e565b610aa9816115eb565b6006546001600160a01b031633146112ae5760405162461bcd60e51b815260040161076e90611f40565b600a80546001600160a01b0390921661010002610100600160a81b0319909216919091179055565b6000908152600260205260409020546001600160a01b0316151590565b600081815260046020526040902080546001600160a01b0319166001600160a01b038416908117909155819061132882610ad2565b6001600160a01b03167f8c5be1e5ebec7d5bd14f71427d1e84f3dd0314c0f7b2291e5b200ac8c7c3b92560405160405180910390a45050565b600061136c826112d6565b6113cd5760405162461bcd60e51b815260206004820152602c60248201527f4552433732313a206f70657261746f7220717565727920666f72206e6f6e657860448201526b34b9ba32b73a103a37b5b2b760a11b606482015260840161076e565b60006113d883610ad2565b9050806001600160a01b0316846001600160a01b031614806114135750836001600160a01b031661140884610706565b6001600160a01b0316145b8061144357506001600160a01b0380821660009081526005602090815260408083209388168352929052205460ff165b949350505050565b826001600160a01b031661145e82610ad2565b6001600160a01b0316146114c65760405162461bcd60e51b815260206004820152602960248201527f4552433732313a207472616e73666572206f6620746f6b656e2074686174206960448201526839903737ba1037bbb760b91b606482015260840161076e565b6001600160a01b0382166115285760405162461bcd60e51b8152602060048201526024808201527f4552433732313a207472616e7366657220746f20746865207a65726f206164646044820152637265737360e01b606482015260840161076e565b6115336000826112f3565b6001600160a01b038316600090815260036020526040812080546001929061155c908490612076565b90915550506001600160a01b038216600090815260036020526040812080546001929061158a90849061201f565b909155505060008181526002602052604080822080546001600160a01b0319166001600160a01b0386811691821790925591518493918716917fddf252ad1be2c89b69c2b068fc378daa952ba7f163c4a11628f55a4df523b3ef91a4505050565b600680546001600160a01b038381166001600160a01b0319831681179093556040519116919082907f8be0079c531659141344cd1fd0a4f28419497f9722a3daafe3b4186f6b6457e090600090a35050565b6000611649828461201f565b9392505050565b6110d9828260405180602001604052806000815250611778565b60006116498284612057565b816001600160a01b0316836001600160a01b031614156116d85760405162461bcd60e51b815260206004820152601960248201527f4552433732313a20617070726f766520746f2063616c6c657200000000000000604482015260640161076e565b6001600160a01b03838116600081815260056020908152604080832094871680845294825291829020805460ff191686151590811790915591519182527f17307eab39ab6107e8899845ad3d59bd9653f200f220920489ca2b5937696c31910160405180910390a3505050565b61175084848461144b565b61175c848484846117ab565b61111a5760405162461bcd60e51b815260040161076e90611eee565b61178283836118b8565b61178f60008484846117ab565b6108a45760405162461bcd60e51b815260040161076e90611eee565b60006001600160a01b0384163b156118ad57604051630a85bd0160e11b81526001600160a01b0385169063150b7a02906117ef903390899088908890600401611e5a565b602060405180830381600087803b15801561180957600080fd5b505af1925050508015611839575060408051601f3d908101601f1916820190925261183691810190611c7f565b60015b611893573d808015611867576040519150601f19603f3d011682016040523d82523d6000602084013e61186c565b606091505b50805161188b5760405162461bcd60e51b815260040161076e90611eee565b805181602001fd5b6001600160e01b031916630a85bd0160e11b149050611443565b506001949350505050565b6001600160a01b03821661190e5760405162461bcd60e51b815260206004820181905260248201527f4552433732313a206d696e7420746f20746865207a65726f2061646472657373604482015260640161076e565b611917816112d6565b156119645760405162461bcd60e51b815260206004820152601c60248201527f4552433732313a20746f6b656e20616c7265616479206d696e74656400000000604482015260640161076e565b6001600160a01b038216600090815260036020526040812080546001929061198d90849061201f565b909155505060008181526002602052604080822080546001600160a01b0319166001600160a01b03861690811790915590518392907fddf252ad1be2c89b69c2b068fc378daa952ba7f163c4a11628f55a4df523b3ef908290a45050565b8280546119f7906120b9565b90600052602060002090601f016020900481019282611a195760008555611a5f565b82601f10611a3257805160ff1916838001178555611a5f565b82800160010185558215611a5f579182015b82811115611a5f578251825591602001919060010190611a44565b50611a6b929150611a6f565b5090565b5b80821115611a6b5760008155600101611a70565b6000611a97611a9284611ff7565b611fc6565b9050828152838383011115611aab57600080fd5b828260208301376000602084830101529392505050565b600060208284031215611ad3578081fd5b81356116498161213b565b60008060408385031215611af0578081fd5b8235611afb8161213b565b91506020830135611b0b8161213b565b809150509250929050565b600080600060608486031215611b2a578081fd5b8335611b358161213b565b92506020840135611b458161213b565b929592945050506040919091013590565b60008060008060808587031215611b6b578081fd5b8435611b768161213b565b93506020850135611b868161213b565b925060408501359150606085013567ffffffffffffffff811115611ba8578182fd5b8501601f81018713611bb8578182fd5b611bc787823560208401611a84565b91505092959194509250565b60008060408385031215611be5578182fd5b8235611bf08161213b565b91506020830135611b0b81612150565b60008060408385031215611c12578182fd5b8235611c1d8161213b565b946020939093013593505050565b600060208284031215611c3c578081fd5b813561164981612150565b600060208284031215611c58578081fd5b815161164981612150565b600060208284031215611c74578081fd5b81356116498161215e565b600060208284031215611c90578081fd5b81516116498161215e565b600060208284031215611cac578081fd5b813567ffffffffffffffff811115611cc2578182fd5b8201601f81018413611cd2578182fd5b61144384823560208401611a84565b600060208284031215611cf2578081fd5b815167ffffffffffffffff811115611d08578182fd5b8201601f81018413611d18578182fd5b8051611d26611a9282611ff7565b818152856020838501011115611d3a578384fd5b611d4b82602083016020860161208d565b95945050505050565b600060208284031215611d65578081fd5b5035919050565b60008060408385031215611d7e578182fd5b823591506020830135611b0b8161213b565b60008151808452611da881602086016020860161208d565b601f01601f19169290920160200192915050565b600080845482600182811c915080831680611dd857607f831692505b6020808410821415611df857634e487b7160e01b87526022600452602487fd5b818015611e0c5760018114611e1d57611e49565b60ff19861689528489019650611e49565b60008b815260209020885b86811015611e415781548b820152908501908301611e28565b505084890196505b509785525050509301949350505050565b6001600160a01b0385811682528416602082015260408101839052608060608201819052600090611e8d90830184611d90565b9695505050505050565b6020808252825182820181905260009190848201906040850190845b81811015611ecf57835183529284019291840191600101611eb3565b50909695505050505050565b6020815260006116496020830184611d90565b60208082526032908201527f4552433732313a207472616e7366657220746f206e6f6e20455243373231526560408201527131b2b4bb32b91034b6b83632b6b2b73a32b960711b606082015260800190565b6020808252818101527f4f776e61626c653a2063616c6c6572206973206e6f7420746865206f776e6572604082015260600190565b60208082526031908201527f4552433732313a207472616e736665722063616c6c6572206973206e6f74206f6040820152701ddb995c881b9bdc88185c1c1c9bdd9959607a1b606082015260800190565b604051601f8201601f1916810167ffffffffffffffff81118282101715611fef57611fef612125565b604052919050565b600067ffffffffffffffff82111561201157612011612125565b50601f01601f191660200190565b600082198211156120325761203261210f565b500190565b60008261205257634e487b7160e01b81526012600452602481fd5b500490565b60008160001904831182151516156120715761207161210f565b500290565b6000828210156120885761208861210f565b500390565b60005b838110156120a8578181015183820152602001612090565b8381111561111a5750506000910152565b600181811c908216806120cd57607f821691505b602082108114156120ee57634e487b7160e01b600052602260045260246000fd5b50919050565b60006000198214156121085761210861210f565b5060010190565b634e487b7160e01b600052601160045260246000fd5b634e487b7160e01b600052604160045260246000fd5b6001600160a01b0381168114610aa957600080fd5b8015158114610aa957600080fd5b6001600160e01b031981168114610aa957600080fdfea264697066735822122092b70423caade92287c64ebf00db13547eb7a59f926a9c26d90dfa8f63dce47264736f6c63430008040033",
  "immutableReferences": {},
  "source": "\n//\n// SPDX-License-Identifier: MIT\n\npragma solidity ^0.8.4;\n\nimport \"@openzeppelin/contracts/security/ReentrancyGuard.sol\";\nimport '@openzeppelin/contracts/token/ERC721/ERC721.sol';\nimport '@openzeppelin/contracts/access/Ownable.sol';\nimport \"@openzeppelin/contracts/utils/Counters.sol\";\nimport '@openzeppelin/contracts/token/ERC20/IERC20.sol';\nimport '@openzeppelin/contracts/token/ERC721/IERC721.sol';\nimport '@openzeppelin/contracts/utils/math/SafeMath.sol';\n\ncontract CryptoSuits is ERC721, Ownable, ReentrancyGuard {\n    using SafeMath for uint256;\n    using Counters for Counters.Counter;\n    Counters.Counter private _tokenIds;\n\n    string public baseUri = \"https://api.cryptosuits.io/json/\";\n    bool private onchain;\n    ERC721 metadata;\n\n    // Sales\n    bool public startSale;\n    uint256 public price = .03 ether;\n    uint public constant maxPurchase = 20;\n    uint public constant maxSupply = 10000;\n\n    // Team\n    address private sara = 0x00796e910Bd0228ddF4cd79e3f353871a61C351C;\n    address private greg = 0x3FF9f20B191C78Cae66103926E4536049AC4b944;\n    address private steve = 0xBa48044540aB8cDAEe47a338844100a0aE756a8d;\n\n    constructor() ERC721(\"CryptoSuits\", \"CRYPTOSUIT\") {}\n\n    function totalSupply() public view returns(uint256) {\n        return _tokenIds.current();\n    }\n\n    function exists(uint256 tokenId) public view returns(bool) {\n        return _exists(tokenId);\n    }\n\n    function mint(uint numberOfTokens) public payable nonReentrant {\n        require(startSale, \"Wait for the sale to start!\");\n        require(numberOfTokens <= maxPurchase, \"Maximum 20!\");\n        require(_tokenIds.current().add(numberOfTokens) <= maxSupply, \"Exceeding max supply!\");\n        require(price.mul(numberOfTokens) <= msg.value, \"Dont fuck around.\");\n\n        for(uint i = 0; i < numberOfTokens; i++) {\n            _tokenIds.increment();\n            _safeMint(msg.sender, _tokenIds.current());\n        }\n    }\n\n    function mintTeam(uint256 numberOfTokens, address receiver) public onlyOwner {\n        require(_tokenIds.current().add(numberOfTokens) <= maxSupply, \"Exceeding max supply!\");\n        for(uint i = 0; i < numberOfTokens; i++) {\n            _tokenIds.increment();\n            _safeMint(receiver, _tokenIds.current());\n        }\n    }\n\n    function getByOwner(address owner) view public returns(uint256[] memory result) {\n        result = new uint256[](balanceOf(owner));\n        uint256 resultIndex = 0;\n        for (uint256 t = 1; t <= _tokenIds.current(); t++) {\n            if (_exists(t) && ownerOf(t) == owner) {\n                result[resultIndex] = t;\n                resultIndex++;\n            }\n        }\n    }\n\n    function setBaseUri(string memory _baseUri) public onlyOwner {\n        baseUri = _baseUri;\n    }\n\n    function setSaleStart(bool _startSale) public onlyOwner {\n        startSale = _startSale;\n    }\n\n    function setPrice(uint256 _price) public onlyOwner {\n        price = _price;\n    }\n\n    function setMetadata(address _metadata) public onlyOwner {\n        metadata = ERC721(_metadata);\n    }\n\n    function setOnchain(bool _onchain) public onlyOwner {\n        onchain = _onchain;\n    }\n\n    function withdraw() public payable onlyOwner {\n        uint256 _each = address(this).balance / 3;\n        require(payable(sara).send(_each));\n        require(payable(greg).send(_each));\n        require(payable(steve).send(_each));\n    }\n\n    function forwardERC20s(IERC20 _token, uint256 _amount) public onlyOwner {\n        _token.transfer(msg.sender, _amount);\n    }\n\n    /*\n    *   Overrides\n    */\n    function tokenURI(uint256 tokenId) override public view returns (string memory output) {\n        require(_exists(tokenId));\n        if(!onchain) {\n            output = string(abi.encodePacked(baseUri, tokenId));\n        } else {\n            output = metadata.tokenURI(tokenId);\n        }\n    }\n\n    function _baseURI() internal view override returns (string memory) {\n        return baseUri;\n    }\n\n    receive () external payable virtual {}\n}\n",
  "sourcePath": "/Users/Shared/Code/experimental/cryptosuits/cryptosuits-api/contracts/CryptoSuits.sol",
  "compiler": {
    "name": "solc",
    "version": "0.8.4+commit.c7e474f2.Emscripten.clang"
  },
  "schemaVersion": "3.4.1",
  "updatedAt": "2022-01-18T20:12:58.783Z",
  "devdoc": {
    "kind": "dev",
    "methods": {
      "approve(address,uint256)": {
        "details": "See {IERC721-approve}."
      },
      "balanceOf(address)": {
        "details": "See {IERC721-balanceOf}."
      },
      "getApproved(uint256)": {
        "details": "See {IERC721-getApproved}."
      },
      "isApprovedForAll(address,address)": {
        "details": "See {IERC721-isApprovedForAll}."
      },
      "name()": {
        "details": "See {IERC721Metadata-name}."
      },
      "owner()": {
        "details": "Returns the address of the current owner."
      },
      "ownerOf(uint256)": {
        "details": "See {IERC721-ownerOf}."
      },
      "renounceOwnership()": {
        "details": "Leaves the contract without owner. It will not be possible to call `onlyOwner` functions anymore. Can only be called by the current owner. NOTE: Renouncing ownership will leave the contract without an owner, thereby removing any functionality that is only available to the owner."
      },
      "safeTransferFrom(address,address,uint256)": {
        "details": "See {IERC721-safeTransferFrom}."
      },
      "safeTransferFrom(address,address,uint256,bytes)": {
        "details": "See {IERC721-safeTransferFrom}."
      },
      "setApprovalForAll(address,bool)": {
        "details": "See {IERC721-setApprovalForAll}."
      },
      "supportsInterface(bytes4)": {
        "details": "See {IERC165-supportsInterface}."
      },
      "symbol()": {
        "details": "See {IERC721Metadata-symbol}."
      },
      "tokenURI(uint256)": {
        "details": "See {IERC721Metadata-tokenURI}."
      },
      "transferFrom(address,address,uint256)": {
        "details": "See {IERC721-transferFrom}."
      },
      "transferOwnership(address)": {
        "details": "Transfers ownership of the contract to a new account (`newOwner`). Can only be called by the current owner."
      }
    },
    "version": 1
  },
  "userdoc": {
    "kind": "user",
    "methods": {},
    "version": 1
  }
}